{
  "_format": "hh-sol-artifact-1",
  "contractName": "CreditScore",
  "sourceName": "contracts/CreditScore.sol",
  "abi": [
    {
      "inputs": [
        {
          "internalType": "address",
          "name": "initialOwner",
          "type": "address"
        }
      ],
      "stateMutability": "nonpayable",
      "type": "constructor"
    },
    {
      "inputs": [
        {
          "internalType": "address",
          "name": "owner",
          "type": "address"
        }
      ],
      "name": "OwnableInvalidOwner",
      "type": "error"
    },
    {
      "inputs": [
        {
          "internalType": "address",
          "name": "account",
          "type": "address"
        }
      ],
      "name": "OwnableUnauthorizedAccount",
      "type": "error"
    },
    {
      "anonymous": false,
      "inputs": [
        {
          "indexed": true,
          "internalType": "address",
          "name": "user",
          "type": "address"
        }
      ],
      "name": "CheckCreditScore",
      "type": "event"
    },
    {
      "anonymous": false,
      "inputs": [
        {
          "indexed": true,
          "internalType": "address",
          "name": "previousOwner",
          "type": "address"
        },
        {
          "indexed": true,
          "internalType": "address",
          "name": "newOwner",
          "type": "address"
        }
      ],
      "name": "OwnershipTransferred",
      "type": "event"
    },
    {
      "anonymous": false,
      "inputs": [
        {
          "indexed": true,
          "internalType": "address",
          "name": "user",
          "type": "address"
        },
        {
          "indexed": false,
          "internalType": "uint256",
          "name": "creditScore",
          "type": "uint256"
        }
      ],
      "name": "UpdatedCreditScore",
      "type": "event"
    },
    {
      "inputs": [],
      "name": "BLOCK_INTERVAL",
      "outputs": [
        {
          "internalType": "uint256",
          "name": "",
          "type": "uint256"
        }
      ],
      "stateMutability": "view",
      "type": "function"
    },
    {
      "inputs": [
        {
          "internalType": "address",
          "name": "user",
          "type": "address"
        }
      ],
      "name": "checkCreditScore",
      "outputs": [
        {
          "internalType": "uint256",
          "name": "",
          "type": "uint256"
        }
      ],
      "stateMutability": "nonpayable",
      "type": "function"
    },
    {
      "inputs": [
        {
          "internalType": "address",
          "name": "",
          "type": "address"
        }
      ],
      "name": "creditInfo",
      "outputs": [
        {
          "internalType": "uint256",
          "name": "transactionVolume",
          "type": "uint256"
        },
        {
          "internalType": "uint256",
          "name": "walletBalance",
          "type": "uint256"
        },
        {
          "internalType": "uint256",
          "name": "transactionFrequency",
          "type": "uint256"
        },
        {
          "internalType": "uint256",
          "name": "transactionMix",
          "type": "uint256"
        },
        {
          "internalType": "uint256",
          "name": "newTransactions",
          "type": "uint256"
        },
        {
          "internalType": "uint256",
          "name": "creditScore",
          "type": "uint256"
        },
        {
          "internalType": "uint256",
          "name": "lastUpdated",
          "type": "uint256"
        }
      ],
      "stateMutability": "view",
      "type": "function"
    },
    {
      "inputs": [
        {
          "internalType": "address",
          "name": "user",
          "type": "address"
        }
      ],
      "name": "getCreditScore",
      "outputs": [
        {
          "internalType": "uint256",
          "name": "",
          "type": "uint256"
        }
      ],
      "stateMutability": "view",
      "type": "function"
    },
    {
      "inputs": [],
      "name": "newTransactionsConfig",
      "outputs": [
        {
          "internalType": "uint256",
          "name": "minValue",
          "type": "uint256"
        },
        {
          "internalType": "uint256",
          "name": "maxValue",
          "type": "uint256"
        }
      ],
      "stateMutability": "view",
      "type": "function"
    },
    {
      "inputs": [],
      "name": "owner",
      "outputs": [
        {
          "internalType": "address",
          "name": "",
          "type": "address"
        }
      ],
      "stateMutability": "view",
      "type": "function"
    },
    {
      "inputs": [],
      "name": "renounceOwnership",
      "outputs": [],
      "stateMutability": "nonpayable",
      "type": "function"
    },
    {
      "inputs": [
        {
          "internalType": "uint256",
          "name": "newInterval",
          "type": "uint256"
        }
      ],
      "name": "setBlockInterval",
      "outputs": [],
      "stateMutability": "nonpayable",
      "type": "function"
    },
    {
      "inputs": [],
      "name": "transactionFrequencyConfig",
      "outputs": [
        {
          "internalType": "uint256",
          "name": "minValue",
          "type": "uint256"
        },
        {
          "internalType": "uint256",
          "name": "maxValue",
          "type": "uint256"
        }
      ],
      "stateMutability": "view",
      "type": "function"
    },
    {
      "inputs": [],
      "name": "transactionMixConfig",
      "outputs": [
        {
          "internalType": "uint256",
          "name": "minValue",
          "type": "uint256"
        },
        {
          "internalType": "uint256",
          "name": "maxValue",
          "type": "uint256"
        }
      ],
      "stateMutability": "view",
      "type": "function"
    },
    {
      "inputs": [],
      "name": "transactionVolumeConfig",
      "outputs": [
        {
          "internalType": "uint256",
          "name": "minValue",
          "type": "uint256"
        },
        {
          "internalType": "uint256",
          "name": "maxValue",
          "type": "uint256"
        }
      ],
      "stateMutability": "view",
      "type": "function"
    },
    {
      "inputs": [
        {
          "internalType": "address",
          "name": "newOwner",
          "type": "address"
        }
      ],
      "name": "transferOwnership",
      "outputs": [],
      "stateMutability": "nonpayable",
      "type": "function"
    },
    {
      "inputs": [
        {
          "internalType": "address",
          "name": "user",
          "type": "address"
        }
      ],
      "name": "updateCreditScore",
      "outputs": [],
      "stateMutability": "nonpayable",
      "type": "function"
    },
    {
      "inputs": [
        {
          "internalType": "address",
          "name": "user",
          "type": "address"
        },
        {
          "internalType": "uint256",
          "name": "newTransactions",
          "type": "uint256"
        }
      ],
      "name": "updateNewTransactions",
      "outputs": [],
      "stateMutability": "nonpayable",
      "type": "function"
    },
    {
      "inputs": [
        {
          "internalType": "uint256",
          "name": "minValue",
          "type": "uint256"
        },
        {
          "internalType": "uint256",
          "name": "maxValue",
          "type": "uint256"
        }
      ],
      "name": "updateNewTransactionsConfig",
      "outputs": [],
      "stateMutability": "nonpayable",
      "type": "function"
    },
    {
      "inputs": [
        {
          "internalType": "address",
          "name": "user",
          "type": "address"
        },
        {
          "internalType": "uint256",
          "name": "transactionFrequency",
          "type": "uint256"
        }
      ],
      "name": "updateTransactionFrequency",
      "outputs": [],
      "stateMutability": "nonpayable",
      "type": "function"
    },
    {
      "inputs": [
        {
          "internalType": "uint256",
          "name": "minValue",
          "type": "uint256"
        },
        {
          "internalType": "uint256",
          "name": "maxValue",
          "type": "uint256"
        }
      ],
      "name": "updateTransactionFrequencyConfig",
      "outputs": [],
      "stateMutability": "nonpayable",
      "type": "function"
    },
    {
      "inputs": [
        {
          "internalType": "address",
          "name": "user",
          "type": "address"
        },
        {
          "internalType": "uint256",
          "name": "transactionMix",
          "type": "uint256"
        }
      ],
      "name": "updateTransactionMix",
      "outputs": [],
      "stateMutability": "nonpayable",
      "type": "function"
    },
    {
      "inputs": [
        {
          "internalType": "uint256",
          "name": "minValue",
          "type": "uint256"
        },
        {
          "internalType": "uint256",
          "name": "maxValue",
          "type": "uint256"
        }
      ],
      "name": "updateTransactionMixConfig",
      "outputs": [],
      "stateMutability": "nonpayable",
      "type": "function"
    },
    {
      "inputs": [
        {
          "internalType": "address",
          "name": "user",
          "type": "address"
        },
        {
          "internalType": "uint256",
          "name": "transactionVolume",
          "type": "uint256"
        }
      ],
      "name": "updateTransactionVolume",
      "outputs": [],
      "stateMutability": "nonpayable",
      "type": "function"
    },
    {
      "inputs": [
        {
          "internalType": "uint256",
          "name": "minValue",
          "type": "uint256"
        },
        {
          "internalType": "uint256",
          "name": "maxValue",
          "type": "uint256"
        }
      ],
      "name": "updateTransactionVolumeConfig",
      "outputs": [],
      "stateMutability": "nonpayable",
      "type": "function"
    },
    {
      "inputs": [
        {
          "internalType": "address",
          "name": "user",
          "type": "address"
        },
        {
          "internalType": "uint256",
          "name": "walletBalance",
          "type": "uint256"
        }
      ],
      "name": "updateWalletBalance",
      "outputs": [],
      "stateMutability": "nonpayable",
      "type": "function"
    },
    {
      "inputs": [
        {
          "internalType": "uint256",
          "name": "minValue",
          "type": "uint256"
        },
        {
          "internalType": "uint256",
          "name": "maxValue",
          "type": "uint256"
        }
      ],
      "name": "updateWalletBalanceConfig",
      "outputs": [],
      "stateMutability": "nonpayable",
      "type": "function"
    },
    {
      "inputs": [],
      "name": "walletBalanceConfig",
      "outputs": [
        {
          "internalType": "uint256",
          "name": "minValue",
          "type": "uint256"
        },
        {
          "internalType": "uint256",
          "name": "maxValue",
          "type": "uint256"
        }
      ],
      "stateMutability": "view",
      "type": "function"
    }
  ],
  "bytecode": "0x60806040526103e86001556040518060400160405280606481526020016127108152506003600082015181600001556020820151816001015550506040518060400160405280670de0b6b3a7640000815260200168056bc75e2d631000008152506005600082015181600001556020820151816001015550506040518060400160405280600a81526020016103e8815250600760008201518160000155602082015181600101555050604051806040016040528060018152602001600a815250600960008201518160000155602082015181600101555050604051806040016040528060018152602001600a815250600b600082015181600001556020820151816001015550503480156200011357600080fd5b5060405162001714380380620017148339818101604052810190620001399190620002f6565b80600073ffffffffffffffffffffffffffffffffffffffff168173ffffffffffffffffffffffffffffffffffffffff1603620001af5760006040517f1e4fbdf7000000000000000000000000000000000000000000000000000000008152600401620001a6919062000339565b60405180910390fd5b620001c081620001c860201b60201c565b505062000356565b60008060009054906101000a900473ffffffffffffffffffffffffffffffffffffffff169050816000806101000a81548173ffffffffffffffffffffffffffffffffffffffff021916908373ffffffffffffffffffffffffffffffffffffffff1602179055508173ffffffffffffffffffffffffffffffffffffffff168173ffffffffffffffffffffffffffffffffffffffff167f8be0079c531659141344cd1fd0a4f28419497f9722a3daafe3b4186f6b6457e060405160405180910390a35050565b600080fd5b600073ffffffffffffffffffffffffffffffffffffffff82169050919050565b6000620002be8262000291565b9050919050565b620002d081620002b1565b8114620002dc57600080fd5b50565b600081519050620002f081620002c5565b92915050565b6000602082840312156200030f576200030e6200028c565b5b60006200031f84828501620002df565b91505092915050565b6200033381620002b1565b82525050565b600060208201905062000350600083018462000328565b92915050565b6113ae80620003666000396000f3fe608060405234801561001057600080fd5b50600436106101575760003560e01c80637b8bf8e8116100c3578063c6e747011161007c578063c6e7470114610369578063d3dd2bdf14610385578063d5b09cb7146103b5578063e678209f146103eb578063f1e25a9e14610407578063f2fde38b1461042357610157565b80637b8bf8e8146102b95780638503c43f146102d55780638da5cb5b146102f4578063a07312db14610312578063a9ed01dd1461032e578063ba6943f61461034d57610157565b806338fd7f751161011557806338fd7f751461021d5780634812c0211461023957806351e329f5146102555780635b2ebf2d146102745780635bceb77e14610293578063715018a6146102af57610157565b80629050f21461015c5780630247e6f91461018c578063186d7dda146101a857806327457d2d146101c457806335c4377b146101e05780633892257d146101fe575b600080fd5b61017660048036038101906101719190610fa0565b61043f565b6040516101839190610fe6565b60405180910390f35b6101a660048036038101906101a1919061102d565b6104fd565b005b6101c260048036038101906101bd919061102d565b610588565b005b6101de60048036038101906101d9919061106d565b610613565b005b6101e8610694565b6040516101f59190610fe6565b60405180910390f35b61020661069a565b6040516102149291906110ad565b60405180910390f35b6102376004803603810190610232919061106d565b6106ac565b005b610253600480360381019061024e919061102d565b61072d565b005b61025d6107b8565b60405161026b9291906110ad565b60405180910390f35b61027c6107ca565b60405161028a9291906110ad565b60405180910390f35b6102ad60048036038101906102a8919061102d565b6107dc565b005b6102b7610867565b005b6102d360048036038101906102ce919061106d565b61087b565b005b6102dd6108fc565b6040516102eb9291906110ad565b60405180910390f35b6102fc61090e565b60405161030991906110e5565b60405180910390f35b61032c6004803603810190610327919061106d565b610937565b005b6103366109b8565b6040516103449291906110ad565b60405180910390f35b61036760048036038101906103629190611100565b6109ca565b005b610383600480360381019061037e919061106d565b6109dc565b005b61039f600480360381019061039a9190610fa0565b610a5d565b6040516103ac9190610fe6565b60405180910390f35b6103cf60048036038101906103ca9190610fa0565b610aa9565b6040516103e2979695949392919061112d565b60405180910390f35b6104056004803603810190610400919061102d565b610aeb565b005b610421600480360381019061041c9190610fa0565b610b76565b005b61043d60048036038101906104389190610fa0565b610cf5565b005b600080600260008473ffffffffffffffffffffffffffffffffffffffff1673ffffffffffffffffffffffffffffffffffffffff1681526020019081526020016000209050600081600601544361049591906111cb565b905060015481116104ae578160050154925050506104f8565b8373ffffffffffffffffffffffffffffffffffffffff167fc53a1a80e84969f8c0a88e0ee5340bc3dc44ecf0433db3979ab67a11ba00538b60405160405180910390a26000925050505b919050565b610505610d7b565b6000600260008473ffffffffffffffffffffffffffffffffffffffff1673ffffffffffffffffffffffffffffffffffffffff168152602001908152602001600020905061057282600360405180604001604052908160008201548152602001600182015481525050610e02565b816000018190555061058383610b76565b505050565b610590610d7b565b6000600260008473ffffffffffffffffffffffffffffffffffffffff1673ffffffffffffffffffffffffffffffffffffffff16815260200190815260200160002090506105fd82600960405180604001604052908160008201548152602001600182015481525050610e02565b816003018190555061060e83610b76565b505050565b61061b610d7b565b818180821115610660576040517f08c379a000000000000000000000000000000000000000000000000000000000815260040161065790611282565b60405180910390fd5b6040518060400160405280858152602001848152506003600082015181600001556020820151816001015590505050505050565b60015481565b60038060000154908060010154905082565b6106b4610d7b565b8181808211156106f9576040517f08c379a00000000000000000000000000000000000000000000000000000000081526004016106f090611282565b60405180910390fd5b6040518060400160405280858152602001848152506007600082015181600001556020820151816001015590505050505050565b610735610d7b565b6000600260008473ffffffffffffffffffffffffffffffffffffffff1673ffffffffffffffffffffffffffffffffffffffff16815260200190815260200160002090506107a282600560405180604001604052908160008201548152602001600182015481525050610e02565b81600101819055506107b383610b76565b505050565b60078060000154908060010154905082565b60098060000154908060010154905082565b6107e4610d7b565b6000600260008473ffffffffffffffffffffffffffffffffffffffff1673ffffffffffffffffffffffffffffffffffffffff168152602001908152602001600020905061085182600b60405180604001604052908160008201548152602001600182015481525050610e02565b816004018190555061086283610b76565b505050565b61086f610d7b565b6108796000610e71565b565b610883610d7b565b8181808211156108c8576040517f08c379a00000000000000000000000000000000000000000000000000000000081526004016108bf90611282565b60405180910390fd5b6040518060400160405280858152602001848152506005600082015181600001556020820151816001015590505050505050565b600b8060000154908060010154905082565b60008060009054906101000a900473ffffffffffffffffffffffffffffffffffffffff16905090565b61093f610d7b565b818180821115610984576040517f08c379a000000000000000000000000000000000000000000000000000000000815260040161097b90611282565b60405180910390fd5b6040518060400160405280858152602001848152506009600082015181600001556020820151816001015590505050505050565b60058060000154908060010154905082565b6109d2610d7b565b8060018190555050565b6109e4610d7b565b818180821115610a29576040517f08c379a0000000000000000000000000000000000000000000000000000000008152600401610a2090611282565b60405180910390fd5b604051806040016040528085815260200184815250600b600082015181600001556020820151816001015590505050505050565b6000600260008373ffffffffffffffffffffffffffffffffffffffff1673ffffffffffffffffffffffffffffffffffffffff168152602001908152602001600020600501549050919050565b60026020528060005260406000206000915090508060000154908060010154908060020154908060030154908060040154908060050154908060060154905087565b610af3610d7b565b6000600260008473ffffffffffffffffffffffffffffffffffffffff1673ffffffffffffffffffffffffffffffffffffffff1681526020019081526020016000209050610b6082600760405180604001604052908160008201548152602001600182015481525050610e02565b8160020181905550610b7183610b76565b505050565b610b7e610d7b565b6000600260008373ffffffffffffffffffffffffffffffffffffffff1673ffffffffffffffffffffffffffffffffffffffff168152602001908152602001600020905060006064600a8360040154610bd691906112a2565b600a8460030154610be791906112a2565b600f8560020154610bf891906112a2565b601e8660010154610c0991906112a2565b60238760000154610c1a91906112a2565b610c2491906112e4565b610c2e91906112e4565b610c3891906112e4565b610c4291906112e4565b610c4c9190611347565b9050600061012c905060006103529050816103e88383610c6c91906111cb565b85610c7791906112a2565b610c819190611347565b610c8b91906112e4565b84600501819055504384600601819055508473ffffffffffffffffffffffffffffffffffffffff167f33d861824bc23921ac9a0e606c8e9445e090754e88015bb1f2cbfd09c4889aff8560050154604051610ce69190610fe6565b60405180910390a25050505050565b610cfd610d7b565b600073ffffffffffffffffffffffffffffffffffffffff168173ffffffffffffffffffffffffffffffffffffffff1603610d6f5760006040517f1e4fbdf7000000000000000000000000000000000000000000000000000000008152600401610d6691906110e5565b60405180910390fd5b610d7881610e71565b50565b610d83610f35565b73ffffffffffffffffffffffffffffffffffffffff16610da161090e565b73ffffffffffffffffffffffffffffffffffffffff1614610e0057610dc4610f35565b6040517f118cdaa7000000000000000000000000000000000000000000000000000000008152600401610df791906110e5565b60405180910390fd5b565b600081600001518311610e185760009050610e6b565b81602001518310610e2d576103e89050610e6b565b81600001518260200151610e4191906111cb565b6103e8836000015185610e5491906111cb565b610e5e91906112a2565b610e689190611347565b90505b92915050565b60008060009054906101000a900473ffffffffffffffffffffffffffffffffffffffff169050816000806101000a81548173ffffffffffffffffffffffffffffffffffffffff021916908373ffffffffffffffffffffffffffffffffffffffff1602179055508173ffffffffffffffffffffffffffffffffffffffff168173ffffffffffffffffffffffffffffffffffffffff167f8be0079c531659141344cd1fd0a4f28419497f9722a3daafe3b4186f6b6457e060405160405180910390a35050565b600033905090565b600080fd5b600073ffffffffffffffffffffffffffffffffffffffff82169050919050565b6000610f6d82610f42565b9050919050565b610f7d81610f62565b8114610f8857600080fd5b50565b600081359050610f9a81610f74565b92915050565b600060208284031215610fb657610fb5610f3d565b5b6000610fc484828501610f8b565b91505092915050565b6000819050919050565b610fe081610fcd565b82525050565b6000602082019050610ffb6000830184610fd7565b92915050565b61100a81610fcd565b811461101557600080fd5b50565b60008135905061102781611001565b92915050565b6000806040838503121561104457611043610f3d565b5b600061105285828601610f8b565b925050602061106385828601611018565b9150509250929050565b6000806040838503121561108457611083610f3d565b5b600061109285828601611018565b92505060206110a385828601611018565b9150509250929050565b60006040820190506110c26000830185610fd7565b6110cf6020830184610fd7565b9392505050565b6110df81610f62565b82525050565b60006020820190506110fa60008301846110d6565b92915050565b60006020828403121561111657611115610f3d565b5b600061112484828501611018565b91505092915050565b600060e082019050611142600083018a610fd7565b61114f6020830189610fd7565b61115c6040830188610fd7565b6111696060830187610fd7565b6111766080830186610fd7565b61118360a0830185610fd7565b61119060c0830184610fd7565b98975050505050505050565b7f4e487b7100000000000000000000000000000000000000000000000000000000600052601160045260246000fd5b60006111d682610fcd565b91506111e183610fcd565b92508282039050818111156111f9576111f861119c565b5b92915050565b600082825260208201905092915050565b7f496e76616c696420696e7075743a206d696e56616c7565206d7573742062652060008201527f6c657373207468616e206f7220657175616c20746f206d617856616c75650000602082015250565b600061126c603e836111ff565b915061127782611210565b604082019050919050565b6000602082019050818103600083015261129b8161125f565b9050919050565b60006112ad82610fcd565b91506112b883610fcd565b92508282026112c681610fcd565b915082820484148315176112dd576112dc61119c565b5b5092915050565b60006112ef82610fcd565b91506112fa83610fcd565b92508282019050808211156113125761131161119c565b5b92915050565b7f4e487b7100000000000000000000000000000000000000000000000000000000600052601260045260246000fd5b600061135282610fcd565b915061135d83610fcd565b92508261136d5761136c611318565b5b82820490509291505056fea26469706673582212206dd6463688ee07008bd52c8aab2382130ab6e84433cd2d48e4d8abb7808c784f64736f6c63430008180033",
  "linkReferences": {},
  "deployedLinkReferences": {}
}